{
  "contractName": "TokenCreation",
  "abi": [
    {
      "constant": true,
      "inputs": [
        {
          "name": "",
          "type": "uint256"
        }
      ],
      "name": "tokens",
      "outputs": [
        {
          "name": "token",
          "type": "address"
        }
      ],
      "payable": false,
      "stateMutability": "view",
      "type": "function"
    },
    {
      "constant": false,
      "inputs": [
        {
          "name": "_id",
          "type": "uint256"
        },
        {
          "name": "_symbol",
          "type": "string"
        },
        {
          "name": "_name",
          "type": "string"
        },
        {
          "name": "_supply",
          "type": "uint256"
        },
        {
          "name": "_rate",
          "type": "uint8"
        },
        {
          "name": "_currency",
          "type": "string"
        }
      ],
      "name": "createToken",
      "outputs": [
        {
          "components": [
            {
              "name": "token",
              "type": "address"
            }
          ],
          "name": "token",
          "type": "tuple"
        }
      ],
      "payable": false,
      "stateMutability": "nonpayable",
      "type": "function"
    },
    {
      "constant": true,
      "inputs": [
        {
          "name": "_id",
          "type": "uint256"
        }
      ],
      "name": "otherStuff",
      "outputs": [
        {
          "name": "",
          "type": "uint256"
        }
      ],
      "payable": false,
      "stateMutability": "view",
      "type": "function"
    },
    {
      "constant": true,
      "inputs": [
        {
          "name": "_id",
          "type": "uint256"
        }
      ],
      "name": "getDetail",
      "outputs": [
        {
          "name": "",
          "type": "string"
        },
        {
          "name": "",
          "type": "string"
        },
        {
          "name": "",
          "type": "uint8"
        },
        {
          "name": "",
          "type": "uint256"
        },
        {
          "name": "",
          "type": "uint8"
        },
        {
          "name": "",
          "type": "string"
        },
        {
          "name": "",
          "type": "address"
        }
      ],
      "payable": false,
      "stateMutability": "view",
      "type": "function"
    }
  ],
  "bytecode": "0x608060405234801561001057600080fd5b506124d7806100206000396000f3fe60806040526004361062000067576000357c0100000000000000000000000000000000000000000000000000000000900463ffffffff1680630c61360a146200006c5780634f64b2be14620000b05780639d66a9cd14620000f4578063bea2125d146200013e575b600080fd5b3480156200007957600080fd5b5062000098600480360362000092919081019062000811565b62000182565b604051620000a7919062000ab1565b60405180910390f35b348015620000bd57600080fd5b50620000dc6004803603620000d69190810190620007b9565b6200032d565b604051620000eb919062000990565b60405180910390f35b3480156200010157600080fd5b506200012060048036036200011a9190810190620007b9565b6200036b565b60405162000135979695949392919062000a1f565b60405180910390f35b3480156200014b57600080fd5b506200016a6004803603620001649190810190620007b9565b62000474565b60405162000179919062000ace565b60405180910390f35b6200018c6200055c565b85858585856200019b62000586565b620001ab959493929190620009ad565b604051809103906000f080158015620001c8573d6000803e3d6000fd5b506000806101000a81548173ffffffffffffffffffffffffffffffffffffffff021916908373ffffffffffffffffffffffffffffffffffffffff1602179055506020604051908101604052806000809054906101000a900473ffffffffffffffffffffffffffffffffffffffff1673ffffffffffffffffffffffffffffffffffffffff168152506001600089815260200190815260200160002060008201518160000160006101000a81548173ffffffffffffffffffffffffffffffffffffffff021916908373ffffffffffffffffffffffffffffffffffffffff16021790555090505060016000888152602001908152602001600020602060405190810160405290816000820160009054906101000a900473ffffffffffffffffffffffffffffffffffffffff1673ffffffffffffffffffffffffffffffffffffffff1673ffffffffffffffffffffffffffffffffffffffff168152505090509695505050505050565b60016020528060005260406000206000915090508060000160009054906101000a900473ffffffffffffffffffffffffffffffffffffffff16905081565b60608060008060006060600080600160008a8152602001908152602001600020905060008160000160009054906101000a900473ffffffffffffffffffffffffffffffffffffffff1690508073ffffffffffffffffffffffffffffffffffffffff1663565974d36040518163ffffffff167c010000000000000000000000000000000000000000000000000000000002815260040160006040518083038186803b1580156200041957600080fd5b505afa1580156200042e573d6000803e3d6000fd5b505050506040513d6000823e3d601f19601f82011682018060405250620004599190810190620006c1565b98509850985098509850985098505050919395979092949650565b60008060016000848152602001908152602001600020905060008160000160009054906101000a900473ffffffffffffffffffffffffffffffffffffffff1690508073ffffffffffffffffffffffffffffffffffffffff166318160ddd6040518163ffffffff167c010000000000000000000000000000000000000000000000000000000002815260040160206040518083038186803b1580156200051857600080fd5b505afa1580156200052d573d6000803e3d6000fd5b505050506040513d601f19601f82011682018060405250620005539190810190620007e5565b92505050919050565b602060405190810160405280600073ffffffffffffffffffffffffffffffffffffffff1681525090565b6040516118588062000c4683390190565b6000620005a5825162000b9c565b905092915050565b600082601f8301121515620005c157600080fd5b8135620005d8620005d28262000b19565b62000aeb565b91508082526020830160208301858383011115620005f557600080fd5b6200060283828462000bef565b50505092915050565b600082601f83011215156200061f57600080fd5b815162000636620006308262000b19565b62000aeb565b915080825260208301602083018583830111156200065357600080fd5b6200066083828462000bfe565b50505092915050565b600062000677823562000bb0565b905092915050565b60006200068d825162000bb0565b905092915050565b6000620006a3823562000bba565b905092915050565b6000620006b9825162000bba565b905092915050565b600080600080600080600060e0888a031215620006dd57600080fd5b600088015167ffffffffffffffff811115620006f857600080fd5b620007068a828b016200060b565b975050602088015167ffffffffffffffff8111156200072457600080fd5b620007328a828b016200060b565b9650506040620007458a828b01620006ab565b9550506060620007588a828b016200067f565b94505060806200076b8a828b01620006ab565b93505060a088015167ffffffffffffffff8111156200078957600080fd5b620007978a828b016200060b565b92505060c0620007aa8a828b0162000597565b91505092959891949750929550565b600060208284031215620007cc57600080fd5b6000620007dc8482850162000669565b91505092915050565b600060208284031215620007f857600080fd5b600062000808848285016200067f565b91505092915050565b60008060008060008060c087890312156200082b57600080fd5b60006200083b89828a0162000669565b965050602087013567ffffffffffffffff8111156200085957600080fd5b6200086789828a01620005ad565b955050604087013567ffffffffffffffff8111156200088557600080fd5b6200089389828a01620005ad565b9450506060620008a689828a0162000669565b9350506080620008b989828a0162000695565b92505060a087013567ffffffffffffffff811115620008d757600080fd5b620008e589828a01620005ad565b9150509295509295509295565b620008fd8162000b51565b82525050565b6200090e8162000bc7565b82525050565b6000620009218262000b46565b8084526200093781602086016020860162000bfe565b620009428162000c34565b602085010191505092915050565b60208201600082015162000968600085018262000903565b50505050565b620009798162000b85565b82525050565b6200098a8162000b8f565b82525050565b6000602082019050620009a7600083018462000903565b92915050565b600060a0820190508181036000830152620009c9818862000914565b90508181036020830152620009df818762000914565b9050620009f060408301866200096e565b620009ff60608301856200097f565b818103608083015262000a13818462000914565b90509695505050505050565b600060e082019050818103600083015262000a3b818a62000914565b9050818103602083015262000a51818962000914565b905062000a6260408301886200097f565b62000a7160608301876200096e565b62000a8060808301866200097f565b81810360a083015262000a94818562000914565b905062000aa560c0830184620008f2565b98975050505050505050565b600060208201905062000ac8600083018462000950565b92915050565b600060208201905062000ae560008301846200096e565b92915050565b6000604051905081810181811067ffffffffffffffff8211171562000b0f57600080fd5b8060405250919050565b600067ffffffffffffffff82111562000b3157600080fd5b601f19601f8301169050602081019050919050565b600081519050919050565b600062000b5e8262000b65565b9050919050565b600073ffffffffffffffffffffffffffffffffffffffff82169050919050565b6000819050919050565b600060ff82169050919050565b600062000ba98262000b65565b9050919050565b6000819050919050565b600060ff82169050919050565b600062000bd48262000bdb565b9050919050565b600062000be88262000b65565b9050919050565b82818337600083830152505050565b60005b8381101562000c1e57808201518184015260208101905062000c01565b8381111562000c2e576000848401525b50505050565b6000601f19601f830116905091905056fe60806040523480156200001157600080fd5b506040516200185838038062001858833981018060405260a08110156200003757600080fd5b8101908080516401000000008111156200005057600080fd5b828101905060208101848111156200006757600080fd5b81518560018202830111640100000000821117156200008557600080fd5b50509291906020018051640100000000811115620000a257600080fd5b82810190506020810184811115620000b957600080fd5b8151856001820283011164010000000082111715620000d757600080fd5b5050929190602001805190602001909291908051906020019092919080516401000000008111156200010857600080fd5b828101905060208101848111156200011f57600080fd5b81518560018202830111640100000000821117156200013d57600080fd5b505092919050505084600090805190602001906200015d92919062000264565b5083600190805190602001906200017692919062000264565b508260028190555081600360006101000a81548160ff021916908360ff1602179055508060049080519060200190620001b192919062000264565b5033600560006101000a81548173ffffffffffffffffffffffffffffffffffffffff021916908373ffffffffffffffffffffffffffffffffffffffff1602179055508260066000600560009054906101000a900473ffffffffffffffffffffffffffffffffffffffff1673ffffffffffffffffffffffffffffffffffffffff1673ffffffffffffffffffffffffffffffffffffffff16815260200190815260200160002081905550505050505062000313565b828054600181600116156101000203166002900490600052602060002090601f016020900481019282601f10620002a757805160ff1916838001178555620002d8565b82800160010185558215620002d8579182015b82811115620002d7578251825591602001919060010190620002ba565b5b509050620002e79190620002eb565b5090565b6200031091905b808211156200030c576000816000905550600101620002f2565b5090565b90565b61153580620003236000396000f3fe6080604052600436106100e6576000357c0100000000000000000000000000000000000000000000000000000000900463ffffffff16806306fdde03146100eb578063095ea7b31461017b57806318160ddd146101ee57806323b872dd146102195780632c4e722e146102ac578063313ce567146102dd5780633ba0b9a91461030e5780633eaaf86b146103ab578063565974d3146103d657806370a08231146105925780638da5cb5b146105f7578063a9059cbb1461064e578063dd62ed3e146106c1578063e468688e14610746578063e5a6b10f14610781578063f3ce76b614610811575b600080fd5b3480156100f757600080fd5b506101006108e6565b6040518080602001828103825283818151815260200191508051906020019080838360005b83811015610140578082015181840152602081019050610125565b50505050905090810190601f16801561016d5780820380516001836020036101000a031916815260200191505b509250505060405180910390f35b34801561018757600080fd5b506101d46004803603604081101561019e57600080fd5b81019080803573ffffffffffffffffffffffffffffffffffffffff16906020019092919080359060200190929190505050610984565b604051808215151515815260200191505060405180910390f35b3480156101fa57600080fd5b50610203610a76565b6040518082815260200191505060405180910390f35b34801561022557600080fd5b506102926004803603606081101561023c57600080fd5b81019080803573ffffffffffffffffffffffffffffffffffffffff169060200190929190803573ffffffffffffffffffffffffffffffffffffffff16906020019092919080359060200190929190505050610a80565b604051808215151515815260200191505060405180910390f35b3480156102b857600080fd5b506102c1610d87565b604051808260ff1660ff16815260200191505060405180910390f35b3480156102e957600080fd5b506102f2610d9a565b604051808260ff1660ff16815260200191505060405180910390f35b34801561031a57600080fd5b50610323610d9f565b604051808360ff1660ff16815260200180602001828103825283818151815260200191508051906020019080838360005b8381101561036f578082015181840152602081019050610354565b50505050905090810190601f16801561039c5780820380516001836020036101000a031916815260200191505b50935050505060405180910390f35b3480156103b757600080fd5b506103c0610e59565b6040518082815260200191505060405180910390f35b3480156103e257600080fd5b506103eb610e5f565b6040518080602001806020018860ff1660ff1681526020018781526020018660ff1660ff168152602001806020018573ffffffffffffffffffffffffffffffffffffffff1673ffffffffffffffffffffffffffffffffffffffff16815260200184810384528b818151815260200191508051906020019080838360005b83811015610483578082015181840152602081019050610468565b50505050905090810190601f1680156104b05780820380516001836020036101000a031916815260200191505b5084810383528a818151815260200191508051906020019080838360005b838110156104e95780820151818401526020810190506104ce565b50505050905090810190601f1680156105165780820380516001836020036101000a031916815260200191505b50848103825286818151815260200191508051906020019080838360005b8381101561054f578082015181840152602081019050610534565b50505050905090810190601f16801561057c5780820380516001836020036101000a031916815260200191505b509a505050505050505050505060405180910390f35b34801561059e57600080fd5b506105e1600480360360208110156105b557600080fd5b81019080803573ffffffffffffffffffffffffffffffffffffffff169060200190929190505050611093565b6040518082815260200191505060405180910390f35b34801561060357600080fd5b5061060c6110dc565b604051808273ffffffffffffffffffffffffffffffffffffffff1673ffffffffffffffffffffffffffffffffffffffff16815260200191505060405180910390f35b34801561065a57600080fd5b506106a76004803603604081101561067157600080fd5b81019080803573ffffffffffffffffffffffffffffffffffffffff16906020019092919080359060200190929190505050611102565b604051808215151515815260200191505060405180910390f35b3480156106cd57600080fd5b50610730600480360360408110156106e457600080fd5b81019080803573ffffffffffffffffffffffffffffffffffffffff169060200190929190803573ffffffffffffffffffffffffffffffffffffffff1690602001909291905050506112f6565b6040518082815260200191505060405180910390f35b34801561075257600080fd5b5061077f6004803603602081101561076957600080fd5b810190808035906020019092919050505061137d565b005b34801561078d57600080fd5b50610796611390565b6040518080602001828103825283818151815260200191508051906020019080838360005b838110156107d65780820151818401526020810190506107bb565b50505050905090810190601f1680156108035780820380516001836020036101000a031916815260200191505b509250505060405180910390f35b34801561081d57600080fd5b506108e46004803603604081101561083457600080fd5b81019080803560ff1690602001909291908035906020019064010000000081111561085e57600080fd5b82018360208201111561087057600080fd5b8035906020019184600183028401116401000000008311171561089257600080fd5b91908080601f016020809104026020016040519081016040528093929190818152602001838380828437600081840152601f19601f82011690508083019250505050505050919291929050505061142e565b005b60018054600181600116156101000203166002900480601f01602080910402602001604051908101604052809291908181526020018280546001816001161561010002031660029004801561097c5780601f106109515761010080835404028352916020019161097c565b820191906000526020600020905b81548152906001019060200180831161095f57829003601f168201915b505050505081565b600081600760003373ffffffffffffffffffffffffffffffffffffffff1673ffffffffffffffffffffffffffffffffffffffff16815260200190815260200160002060008573ffffffffffffffffffffffffffffffffffffffff1673ffffffffffffffffffffffffffffffffffffffff168152602001908152602001600020819055508273ffffffffffffffffffffffffffffffffffffffff163373ffffffffffffffffffffffffffffffffffffffff167f8c5be1e5ebec7d5bd14f71427d1e84f3dd0314c0f7b2291e5b200ac8c7c3b925846040518082815260200191505060405180910390a36001905092915050565b6000600254905090565b600081600660008673ffffffffffffffffffffffffffffffffffffffff1673ffffffffffffffffffffffffffffffffffffffff1681526020019081526020016000205410158015610b4d575081600760008673ffffffffffffffffffffffffffffffffffffffff1673ffffffffffffffffffffffffffffffffffffffff16815260200190815260200160002060003373ffffffffffffffffffffffffffffffffffffffff1673ffffffffffffffffffffffffffffffffffffffff1681526020019081526020016000205410155b8015610b595750600082115b8015610be45750600660008473ffffffffffffffffffffffffffffffffffffffff1673ffffffffffffffffffffffffffffffffffffffff1681526020019081526020016000205482600660008673ffffffffffffffffffffffffffffffffffffffff1673ffffffffffffffffffffffffffffffffffffffff1681526020019081526020016000205401115b15610d7b5781600660008673ffffffffffffffffffffffffffffffffffffffff1673ffffffffffffffffffffffffffffffffffffffff1681526020019081526020016000206000828254039250508190555081600760008673ffffffffffffffffffffffffffffffffffffffff1673ffffffffffffffffffffffffffffffffffffffff16815260200190815260200160002060003373ffffffffffffffffffffffffffffffffffffffff1673ffffffffffffffffffffffffffffffffffffffff1681526020019081526020016000206000828254039250508190555081600660008573ffffffffffffffffffffffffffffffffffffffff1673ffffffffffffffffffffffffffffffffffffffff168152602001908152602001600020600082825401925050819055508273ffffffffffffffffffffffffffffffffffffffff168473ffffffffffffffffffffffffffffffffffffffff167fddf252ad1be2c89b69c2b068fc378daa952ba7f163c4a11628f55a4df523b3ef846040518082815260200191505060405180910390a360019050610d80565b600090505b9392505050565b600360009054906101000a900460ff1681565b600081565b60006060600360009054906101000a900460ff166004808054600181600116156101000203166002900480601f016020809104026020016040519081016040528092919081815260200182805460018160011615610100020316600290048015610e4a5780601f10610e1f57610100808354040283529160200191610e4a565b820191906000526020600020905b815481529060010190602001808311610e2d57829003601f168201915b50505050509050915091509091565b60025481565b6060806000806000606060008060016000600254600360009054906101000a900460ff166004600560009054906101000a900473ffffffffffffffffffffffffffffffffffffffff16868054600181600116156101000203166002900480601f016020809104026020016040519081016040528092919081815260200182805460018160011615610100020316600290048015610f3d5780601f10610f1257610100808354040283529160200191610f3d565b820191906000526020600020905b815481529060010190602001808311610f2057829003601f168201915b50505050509650858054600181600116156101000203166002900480601f016020809104026020016040519081016040528092919081815260200182805460018160011615610100020316600290048015610fd95780601f10610fae57610100808354040283529160200191610fd9565b820191906000526020600020905b815481529060010190602001808311610fbc57829003601f168201915b50505050509550818054600181600116156101000203166002900480601f0160208091040260200160405190810160405280929190818152602001828054600181600116156101000203166002900480156110755780601f1061104a57610100808354040283529160200191611075565b820191906000526020600020905b81548152906001019060200180831161105857829003601f168201915b50505050509150965096509650965096509650965090919293949596565b6000600660008373ffffffffffffffffffffffffffffffffffffffff1673ffffffffffffffffffffffffffffffffffffffff168152602001908152602001600020549050919050565b600560009054906101000a900473ffffffffffffffffffffffffffffffffffffffff1681565b600081600660003373ffffffffffffffffffffffffffffffffffffffff1673ffffffffffffffffffffffffffffffffffffffff16815260200190815260200160002054101580156111535750600082115b80156111de5750600660008473ffffffffffffffffffffffffffffffffffffffff1673ffffffffffffffffffffffffffffffffffffffff1681526020019081526020016000205482600660008673ffffffffffffffffffffffffffffffffffffffff1673ffffffffffffffffffffffffffffffffffffffff1681526020019081526020016000205401115b156112eb5781600660003373ffffffffffffffffffffffffffffffffffffffff1673ffffffffffffffffffffffffffffffffffffffff1681526020019081526020016000206000828254039250508190555081600660008573ffffffffffffffffffffffffffffffffffffffff1673ffffffffffffffffffffffffffffffffffffffff168152602001908152602001600020600082825401925050819055508273ffffffffffffffffffffffffffffffffffffffff163373ffffffffffffffffffffffffffffffffffffffff167fddf252ad1be2c89b69c2b068fc378daa952ba7f163c4a11628f55a4df523b3ef846040518082815260200191505060405180910390a3600190506112f0565b600090505b92915050565b6000600760008473ffffffffffffffffffffffffffffffffffffffff1673ffffffffffffffffffffffffffffffffffffffff16815260200190815260200160002060008373ffffffffffffffffffffffffffffffffffffffff1673ffffffffffffffffffffffffffffffffffffffff16815260200190815260200160002054905092915050565b8060026000828254019250508190555050565b60048054600181600116156101000203166002900480601f0160208091040260200160405190810160405280929190818152602001828054600181600116156101000203166002900480156114265780601f106113fb57610100808354040283529160200191611426565b820191906000526020600020905b81548152906001019060200180831161140957829003601f168201915b505050505081565b81600360006101000a81548160ff021916908360ff160217905550806004908051906020019061145f929190611464565b505050565b828054600181600116156101000203166002900490600052602060002090601f016020900481019282601f106114a557805160ff19168380011785556114d3565b828001600101855582156114d3579182015b828111156114d25782518255916020019190600101906114b7565b5b5090506114e091906114e4565b5090565b61150691905b808211156115025760008160009055506001016114ea565b5090565b9056fea165627a7a723058209e0b70804a3365bf5c4a8be1bce60bfd836471b02770c2765be3504f44204bbd0029a265627a7a723058201649e88a628e351b7cb7b59203f090f20028eb2a773f4223b75c5a5a3fe00caa6c6578706572696d656e74616cf50037",
  "source": "pragma solidity >=0.4.21 <0.6.0;\npragma experimental ABIEncoderV2;\n\nimport \"./libToken.sol\";\n\n/**\n * The tokenCreation contract does this and that...\n */\ncontract TokenCreation {\n    // using Token for libToken.Token;\n\tlibToken newToken;\n\tstruct TokenData {\n\t\tlibToken token;\n\t}\n\tmapping (uint => TokenData) public tokens;\n\t\n\n\tfunction createToken (uint _id, string memory _symbol, string memory _name, uint256 _supply, uint8 _rate, string memory _currency) public returns(TokenData memory token) {\n\t\tnewToken = new libToken(_symbol, _name, _supply, _rate, _currency);// This instantiation returns an address of the newly created contract\n\t\ttokens[_id] = TokenData(newToken);\n\t\treturn tokens[_id];\n\t}\n\t\n\tfunction otherStuff (uint _id) view public returns (uint256) {\n\t   TokenData storage _token = tokens[_id];\n\t   ERC20Interface ERCToken = ERC20Interface(_token.token);\n\t   return ERCToken.totalSupply();\n\t}\n\t\n\tfunction getDetail (uint _id) view public returns (string memory, string memory, uint8, uint256, uint8, string memory, address){\n\t   TokenData storage _token = tokens[_id];\n\t   ERC20Interface ERCToken = ERC20Interface(_token.token);\n\t   return ERCToken.details();\n\t}\n\t\n}\n\n",
  "sourcePath": "/Applications/Node/Ba-Exchange/blockchain/contracts/token.sol",
  "compiler": {
    "name": "solc",
    "version": "0.5.0+commit.1d4f565a.Emscripten.clang"
  },
  "schemaVersion": "3.0.6",
  "updatedAt": "2019-04-20T18:18:51.208Z",
  "devdoc": {
    "methods": {}
  },
  "userdoc": {
    "methods": {},
    "notice": "The tokenCreation contract does this and that..."
  }
}